{
  "_format": "hh-sol-artifact-1",
  "contractName": "SimpleStorage",
  "sourceName": "contracts/SimpleStorage.sol",
  "abi": [
    {
      "inputs": [],
      "stateMutability": "nonpayable",
      "type": "constructor"
    },
    {
      "anonymous": false,
      "inputs": [
        {
          "indexed": false,
          "internalType": "string",
          "name": "newMessage",
          "type": "string"
        }
      ],
      "name": "MessageUpdated",
      "type": "event"
    },
    {
      "anonymous": false,
      "inputs": [
        {
          "indexed": true,
          "internalType": "address",
          "name": "newOwner",
          "type": "address"
        }
      ],
      "name": "OwnerSet",
      "type": "event"
    },
    {
      "anonymous": false,
      "inputs": [
        {
          "indexed": false,
          "internalType": "uint256",
          "name": "newValue",
          "type": "uint256"
        }
      ],
      "name": "ValueUpdated",
      "type": "event"
    },
    {
      "inputs": [],
      "name": "getValue",
      "outputs": [
        {
          "internalType": "uint256",
          "name": "",
          "type": "uint256"
        }
      ],
      "stateMutability": "view",
      "type": "function"
    },
    {
      "inputs": [],
      "name": "myMessage",
      "outputs": [
        {
          "internalType": "string",
          "name": "",
          "type": "string"
        }
      ],
      "stateMutability": "view",
      "type": "function"
    },
    {
      "inputs": [],
      "name": "owner",
      "outputs": [
        {
          "internalType": "address",
          "name": "",
          "type": "address"
        }
      ],
      "stateMutability": "view",
      "type": "function"
    },
    {
      "inputs": [
        {
          "internalType": "string",
          "name": "_message",
          "type": "string"
        }
      ],
      "name": "setMessage",
      "outputs": [],
      "stateMutability": "nonpayable",
      "type": "function"
    },
    {
      "inputs": [
        {
          "internalType": "uint256",
          "name": "_value",
          "type": "uint256"
        }
      ],
      "name": "setValue",
      "outputs": [],
      "stateMutability": "nonpayable",
      "type": "function"
    }
  ],
  "bytecode": "0x608060405234801561001057600080fd5b5033600160006101000a81548173ffffffffffffffffffffffffffffffffffffffff021916908373ffffffffffffffffffffffffffffffffffffffff160217905550600160009054906101000a900473ffffffffffffffffffffffffffffffffffffffff1673ffffffffffffffffffffffffffffffffffffffff167f50146d0e3c60aa1d17a70635b05494f864e86144a2201275021014fbf08bafe260405160405180910390a2610a03806100c66000396000f3fe608060405234801561001057600080fd5b50600436106100575760003560e01c80631b008a9f1461005c578063209652551461007a578063368b87721461009857806355241077146100b45780638da5cb5b146100d0575b600080fd5b6100646100ee565b60405161007191906103e6565b60405180910390f35b61008261017c565b60405161008f9190610421565b60405180910390f35b6100b260048036038101906100ad9190610585565b610185565b005b6100ce60048036038101906100c991906105fa565b61025f565b005b6100d8610330565b6040516100e59190610668565b60405180910390f35b600280546100fb906106b2565b80601f0160208091040260200160405190810160405280929190818152602001828054610127906106b2565b80156101745780601f1061014957610100808354040283529160200191610174565b820191906000526020600020905b81548152906001019060200180831161015757829003601f168201915b505050505081565b60008054905090565b600160009054906101000a900473ffffffffffffffffffffffffffffffffffffffff1673ffffffffffffffffffffffffffffffffffffffff163373ffffffffffffffffffffffffffffffffffffffff1614610215576040517f08c379a000000000000000000000000000000000000000000000000000000000815260040161020c9061072f565b60405180910390fd5b806002908161022491906108fb565b507f8fae638bf5c6396194a6bb16601c4035a07fa48191638ff4102f0d96f14cfefb8160405161025491906103e6565b60405180910390a150565b600160009054906101000a900473ffffffffffffffffffffffffffffffffffffffff1673ffffffffffffffffffffffffffffffffffffffff163373ffffffffffffffffffffffffffffffffffffffff16146102ef576040517f08c379a00000000000000000000000000000000000000000000000000000000081526004016102e69061072f565b60405180910390fd5b806000819055507f4273d0736f60e0dedfe745e86718093d8ec8646ebd2a60cd60643eeced565811816040516103259190610421565b60405180910390a150565b600160009054906101000a900473ffffffffffffffffffffffffffffffffffffffff1681565b600081519050919050565b600082825260208201905092915050565b60005b83811015610390578082015181840152602081019050610375565b60008484015250505050565b6000601f19601f8301169050919050565b60006103b882610356565b6103c28185610361565b93506103d2818560208601610372565b6103db8161039c565b840191505092915050565b6000602082019050818103600083015261040081846103ad565b905092915050565b6000819050919050565b61041b81610408565b82525050565b60006020820190506104366000830184610412565b92915050565b6000604051905090565b600080fd5b600080fd5b600080fd5b600080fd5b7f4e487b7100000000000000000000000000000000000000000000000000000000600052604160045260246000fd5b6104928261039c565b810181811067ffffffffffffffff821117156104b1576104b061045a565b5b80604052505050565b60006104c461043c565b90506104d08282610489565b919050565b600067ffffffffffffffff8211156104f0576104ef61045a565b5b6104f98261039c565b9050602081019050919050565b82818337600083830152505050565b6000610528610523846104d5565b6104ba565b90508281526020810184848401111561054457610543610455565b5b61054f848285610506565b509392505050565b600082601f83011261056c5761056b610450565b5b813561057c848260208601610515565b91505092915050565b60006020828403121561059b5761059a610446565b5b600082013567ffffffffffffffff8111156105b9576105b861044b565b5b6105c584828501610557565b91505092915050565b6105d781610408565b81146105e257600080fd5b50565b6000813590506105f4816105ce565b92915050565b6000602082840312156106105761060f610446565b5b600061061e848285016105e5565b91505092915050565b600073ffffffffffffffffffffffffffffffffffffffff82169050919050565b600061065282610627565b9050919050565b61066281610647565b82525050565b600060208201905061067d6000830184610659565b92915050565b7f4e487b7100000000000000000000000000000000000000000000000000000000600052602260045260246000fd5b600060028204905060018216806106ca57607f821691505b6020821081036106dd576106dc610683565b5b50919050565b7f4e6f74206f776e65723a204d696e67676972206c752100000000000000000000600082015250565b6000610719601683610361565b9150610724826106e3565b602082019050919050565b600060208201905081810360008301526107488161070c565b9050919050565b60008190508160005260206000209050919050565b60006020601f8301049050919050565b600082821b905092915050565b6000600883026107b17fffffffffffffffffffffffffffffffffffffffffffffffffffffffffffffffff82610774565b6107bb8683610774565b95508019841693508086168417925050509392505050565b6000819050919050565b60006107f86107f36107ee84610408565b6107d3565b610408565b9050919050565b6000819050919050565b610812836107dd565b61082661081e826107ff565b848454610781565b825550505050565b600090565b61083b61082e565b610846818484610809565b505050565b5b8181101561086a5761085f600082610833565b60018101905061084c565b5050565b601f8211156108af576108808161074f565b61088984610764565b81016020851015610898578190505b6108ac6108a485610764565b83018261084b565b50505b505050565b600082821c905092915050565b60006108d2600019846008026108b4565b1980831691505092915050565b60006108eb83836108c1565b9150826002028217905092915050565b61090482610356565b67ffffffffffffffff81111561091d5761091c61045a565b5b61092782546106b2565b61093282828561086e565b600060209050601f8311600181146109655760008415610953578287015190505b61095d85826108df565b8655506109c5565b601f1984166109738661074f565b60005b8281101561099b57848901518255600182019150602085019450602081019050610976565b868310156109b857848901516109b4601f8916826108c1565b8355505b6001600288020188555050505b50505050505056fea2646970667358221220767774f4da90cdf30beee179ac5da68e528ffd5e6310aadbe07984ab66a3c57c64736f6c63430008140033",
  "linkReferences": {},
  "deployedLinkReferences": {}
}